{
  "contractName": "RockPaperScissors",
  "abi": [
    {
      "constant": true,
      "inputs": [],
      "name": "player2Choice",
      "outputs": [
        {
          "name": "",
          "type": "string"
        }
      ],
      "payable": false,
      "stateMutability": "view",
      "type": "function"
    },
    {
      "constant": true,
      "inputs": [],
      "name": "player1Choice",
      "outputs": [
        {
          "name": "",
          "type": "string"
        }
      ],
      "payable": false,
      "stateMutability": "view",
      "type": "function"
    },
    {
      "inputs": [],
      "payable": false,
      "stateMutability": "nonpayable",
      "type": "constructor"
    },
    {
      "anonymous": false,
      "inputs": [
        {
          "indexed": false,
          "name": "player1",
          "type": "address"
        },
        {
          "indexed": false,
          "name": "player2",
          "type": "address"
        },
        {
          "indexed": false,
          "name": "player1Choice",
          "type": "string"
        },
        {
          "indexed": false,
          "name": "player2Choice",
          "type": "string"
        }
      ],
      "name": "LogPlay",
      "type": "event"
    },
    {
      "anonymous": false,
      "inputs": [
        {
          "indexed": false,
          "name": "playerChoice",
          "type": "string"
        },
        {
          "indexed": false,
          "name": "computerChoice",
          "type": "string"
        }
      ],
      "name": "LogSoloPlay",
      "type": "event"
    },
    {
      "anonymous": false,
      "inputs": [
        {
          "indexed": false,
          "name": "winningPlayer",
          "type": "address"
        },
        {
          "indexed": false,
          "name": "winner",
          "type": "string"
        },
        {
          "indexed": false,
          "name": "player1Choice",
          "type": "string"
        },
        {
          "indexed": false,
          "name": "player2Choice",
          "type": "string"
        }
      ],
      "name": "Winner",
      "type": "event"
    },
    {
      "constant": true,
      "inputs": [],
      "name": "getWinner",
      "outputs": [
        {
          "name": "x",
          "type": "int256"
        }
      ],
      "payable": false,
      "stateMutability": "view",
      "type": "function"
    },
    {
      "constant": false,
      "inputs": [
        {
          "name": "choice",
          "type": "string"
        }
      ],
      "name": "play",
      "outputs": [
        {
          "name": "w",
          "type": "int256"
        }
      ],
      "payable": true,
      "stateMutability": "payable",
      "type": "function"
    },
    {
      "constant": false,
      "inputs": [
        {
          "name": "choice",
          "type": "string"
        },
        {
          "name": "computerChoice",
          "type": "int256"
        }
      ],
      "name": "playSolo",
      "outputs": [
        {
          "name": "w",
          "type": "int256"
        }
      ],
      "payable": true,
      "stateMutability": "payable",
      "type": "function"
    },
    {
      "constant": false,
      "inputs": [
        {
          "name": "computerChoice",
          "type": "int256"
        },
        {
          "name": "computerChoice2",
          "type": "int256"
        }
      ],
      "name": "computerWar",
      "outputs": [
        {
          "name": "w",
          "type": "int256"
        }
      ],
      "payable": true,
      "stateMutability": "payable",
      "type": "function"
    },
    {
      "constant": true,
      "inputs": [],
      "name": "getMyBalance",
      "outputs": [
        {
          "name": "amount",
          "type": "uint256"
        }
      ],
      "payable": false,
      "stateMutability": "view",
      "type": "function"
    },
    {
      "constant": true,
      "inputs": [],
      "name": "getContractBalance",
      "outputs": [
        {
          "name": "amount",
          "type": "uint256"
        }
      ],
      "payable": false,
      "stateMutability": "view",
      "type": "function"
    },
    {
      "constant": false,
      "inputs": [],
      "name": "register",
      "outputs": [
        {
          "name": "player",
          "type": "address"
        }
      ],
      "payable": true,
      "stateMutability": "payable",
      "type": "function"
    },
    {
      "constant": true,
      "inputs": [],
      "name": "AmIPlayer1",
      "outputs": [
        {
          "name": "x",
          "type": "bool"
        }
      ],
      "payable": false,
      "stateMutability": "view",
      "type": "function"
    },
    {
      "constant": true,
      "inputs": [],
      "name": "AmIPlayer2",
      "outputs": [
        {
          "name": "x",
          "type": "bool"
        }
      ],
      "payable": false,
      "stateMutability": "view",
      "type": "function"
    },
    {
      "constant": true,
      "inputs": [],
      "name": "checkBothNotNull",
      "outputs": [
        {
          "name": "x",
          "type": "bool"
        }
      ],
      "payable": false,
      "stateMutability": "view",
      "type": "function"
    }
  ],
  "bytecode": "0x60806040526000600260006101000a81548173ffffffffffffffffffffffffffffffffffffffff021916908373ffffffffffffffffffffffffffffffffffffffff1602179055506000600360006101000a81548173ffffffffffffffffffffffffffffffffffffffff021916908373ffffffffffffffffffffffffffffffffffffffff1602179055503480156200009557600080fd5b5060008060405180807f726f636b000000000000000000000000000000000000000000000000000000008152506004019050908152602001604051809103902060405180807f726f636b0000000000000000000000000000000000000000000000000000000081525060040190509081526020016040518091039020819055506002600060405180807f726f636b000000000000000000000000000000000000000000000000000000008152506004019050908152602001604051809103902060405180807f706170657200000000000000000000000000000000000000000000000000000081525060050190509081526020016040518091039020819055506001600060405180807f726f636b000000000000000000000000000000000000000000000000000000008152506004019050908152602001604051809103902060405180807f73636973736f727300000000000000000000000000000000000000000000000081525060080190509081526020016040518091039020819055506001600060405180807f70617065720000000000000000000000000000000000000000000000000000008152506005019050908152602001604051809103902060405180807f726f636b00000000000000000000000000000000000000000000000000000000815250600401905090815260200160405180910390208190555060008060405180807f70617065720000000000000000000000000000000000000000000000000000008152506005019050908152602001604051809103902060405180807f706170657200000000000000000000000000000000000000000000000000000081525060050190509081526020016040518091039020819055506002600060405180807f70617065720000000000000000000000000000000000000000000000000000008152506005019050908152602001604051809103902060405180807f73636973736f727300000000000000000000000000000000000000000000000081525060080190509081526020016040518091039020819055506002600060405180807f73636973736f72730000000000000000000000000000000000000000000000008152506008019050908152602001604051809103902060405180807f726f636b0000000000000000000000000000000000000000000000000000000081525060040190509081526020016040518091039020819055506001600060405180807f73636973736f72730000000000000000000000000000000000000000000000008152506008019050908152602001604051809103902060405180807f7061706572000000000000000000000000000000000000000000000000000000815250600501905090815260200160405180910390208190555060008060405180807f73636973736f72730000000000000000000000000000000000000000000000008152506008019050908152602001604051809103902060405180807f73636973736f727300000000000000000000000000000000000000000000000081525060080190509081526020016040518091039020819055506040518060400160405280600481526020017f726f636b000000000000000000000000000000000000000000000000000000008152506001600080815260200190815260200160002090805190602001906200057192919062000638565b506040518060400160405280600581526020017f706170657200000000000000000000000000000000000000000000000000000081525060016000600181526020019081526020016000209080519060200190620005d192919062000638565b506040518060400160405280600881526020017f73636973736f7273000000000000000000000000000000000000000000000000815250600160006002815260200190815260200160002090805190602001906200063192919062000638565b50620006e7565b828054600181600116156101000203166002900490600052602060002090601f016020900481019282601f106200067b57805160ff1916838001178555620006ac565b82800160010185558215620006ac579182015b82811115620006ab5782518255916020019190600101906200068e565b5b509050620006bb9190620006bf565b5090565b620006e491905b80821115620006e0576000816000905550600101620006c6565b5090565b90565b6129d380620006f76000396000f3fe6080604052600436106100a75760003560e01c806379b0797c1161006457806379b0797c146102da5780637ce850ab14610309578063805210b7146103555780638a203491146103845780638e7ea5b21461045d578063d8b1f21914610488576100a7565b80630ce6e680146100ac5780631aa3a0081461013c578063452d44dc146101865780634c738909146101b55780636f9fb98a146101e0578063718e63021461020b575b600080fd5b3480156100b857600080fd5b506100c1610518565b6040518080602001828103825283818151815260200191508051906020019080838360005b838110156101015780820151818401526020810190506100e6565b50505050905090810190601f16801561012e5780820380516001836020036101000a031916815260200191505b509250505060405180910390f35b6101446105b6565b604051808273ffffffffffffffffffffffffffffffffffffffff1673ffffffffffffffffffffffffffffffffffffffff16815260200191505060405180910390f35b34801561019257600080fd5b5061019b610a26565b604051808215151515815260200191505060405180910390f35b3480156101c157600080fd5b506101ca610a68565b6040518082815260200191505060405180910390f35b3480156101ec57600080fd5b506101f5610a87565b6040518082815260200191505060405180910390f35b6102c46004803603602081101561022157600080fd5b810190808035906020019064010000000081111561023e57600080fd5b82018360208201111561025057600080fd5b8035906020019184600183028401116401000000008311171561027257600080fd5b91908080601f016020809104026020016040519081016040528093929190818152602001838380828437600081840152601f19601f820116905080830192505050505050509192919290505050610aa6565b6040518082815260200191505060405180910390f35b3480156102e657600080fd5b506102ef611749565b604051808215151515815260200191505060405180910390f35b61033f6004803603604081101561031f57600080fd5b8101908080359060200190929190803590602001909291905050506117a1565b6040518082815260200191505060405180910390f35b34801561036157600080fd5b5061036a611fbf565b604051808215151515815260200191505060405180910390f35b6104476004803603604081101561039a57600080fd5b81019080803590602001906401000000008111156103b757600080fd5b8201836020820111156103c957600080fd5b803590602001918460018302840111640100000000831117156103eb57600080fd5b91908080601f016020809104026020016040519081016040528093929190818152602001838380828437600081840152601f19601f82011690508083019250505050505050919291929080359060200190929190505050612017565b6040518082815260200191505060405180910390f35b34801561046957600080fd5b5061047261277b565b6040518082815260200191505060405180910390f35b34801561049457600080fd5b5061049d612864565b6040518080602001828103825283818151815260200191508051906020019080838360005b838110156104dd5780820151818401526020810190506104c2565b50505050905090810190601f16801561050a5780820380516001836020036101000a031916815260200191505b509250505060405180910390f35b60058054600181600116156101000203166002900480601f0160208091040260200160405190810160405280929190818152602001828054600181600116156101000203166002900480156105ae5780601f10610583576101008083540402835291602001916105ae565b820191906000526020600020905b81548152906001019060200180831161059157829003601f168201915b505050505081565b6000600260009054906101000a900473ffffffffffffffffffffffffffffffffffffffff1673ffffffffffffffffffffffffffffffffffffffff163373ffffffffffffffffffffffffffffffffffffffff16141580156106645750600360009054906101000a900473ffffffffffffffffffffffffffffffffffffffff1673ffffffffffffffffffffffffffffffffffffffff163373ffffffffffffffffffffffffffffffffffffffff1614155b6106d6576040517f08c379a000000000000000000000000000000000000000000000000000000000815260040180806020018281038252600f8152602001807f4e6f7420526567697374657265642e000000000000000000000000000000000081525060200191505060405180910390fd5b600073ffffffffffffffffffffffffffffffffffffffff16600260009054906101000a900473ffffffffffffffffffffffffffffffffffffffff1673ffffffffffffffffffffffffffffffffffffffff1614156107735733600260006101000a81548173ffffffffffffffffffffffffffffffffffffffff021916908373ffffffffffffffffffffffffffffffffffffffff16021790555061080d565b600073ffffffffffffffffffffffffffffffffffffffff16600360009054906101000a900473ffffffffffffffffffffffffffffffffffffffff1673ffffffffffffffffffffffffffffffffffffffff16141561080c5733600360006101000a81548173ffffffffffffffffffffffffffffffffffffffff021916908373ffffffffffffffffffffffffffffffffffffffff1602179055505b5b7f2da93cc2174b259767c5435450edce40f15e9df60149e9a71a94150d8a8900a0600260009054906101000a900473ffffffffffffffffffffffffffffffffffffffff16600360009054906101000a900473ffffffffffffffffffffffffffffffffffffffff1660046005604051808573ffffffffffffffffffffffffffffffffffffffff1673ffffffffffffffffffffffffffffffffffffffff1681526020018473ffffffffffffffffffffffffffffffffffffffff1673ffffffffffffffffffffffffffffffffffffffff16815260200180602001806020018381038352858181546001816001161561010002031660029004815260200191508054600181600116156101000203166002900480156109695780601f1061093e57610100808354040283529160200191610969565b820191906000526020600020905b81548152906001019060200180831161094c57829003601f168201915b50508381038252848181546001816001161561010002031660029004815260200191508054600181600116156101000203166002900480156109ec5780601f106109c1576101008083540402835291602001916109ec565b820191906000526020600020905b8154815290600101906020018083116109cf57829003601f168201915b5050965050505050505060405180910390a1600260009054906101000a900473ffffffffffffffffffffffffffffffffffffffff16905090565b6000806004805460018160011615610100020316600290049050148015610a63575060006005805460018160011615610100020316600290049050145b905090565b60003373ffffffffffffffffffffffffffffffffffffffff1631905090565b60003073ffffffffffffffffffffffffffffffffffffffff1631905090565b6000600260009054906101000a900473ffffffffffffffffffffffffffffffffffffffff1673ffffffffffffffffffffffffffffffffffffffff163373ffffffffffffffffffffffffffffffffffffffff161415610b1a578160049080519060200190610b14929190612902565b50610b89565b600360009054906101000a900473ffffffffffffffffffffffffffffffffffffffff1673ffffffffffffffffffffffffffffffffffffffff163373ffffffffffffffffffffffffffffffffffffffff161415610b88578160059080519060200190610b86929190612902565b505b5b6000600480546001816001161561010002031660029004905014158015610bc757506000600580546001816001161561010002031660029004905014155b15611720577f2da93cc2174b259767c5435450edce40f15e9df60149e9a71a94150d8a8900a0600260009054906101000a900473ffffffffffffffffffffffffffffffffffffffff16600360009054906101000a900473ffffffffffffffffffffffffffffffffffffffff1660046005604051808573ffffffffffffffffffffffffffffffffffffffff1673ffffffffffffffffffffffffffffffffffffffff1681526020018473ffffffffffffffffffffffffffffffffffffffff1673ffffffffffffffffffffffffffffffffffffffff1681526020018060200180602001838103835285818154600181600116156101000203166002900481526020019150805460018160011615610100020316600290048015610d285780601f10610cfd57610100808354040283529160200191610d28565b820191906000526020600020905b815481529060010190602001808311610d0b57829003601f168201915b5050838103825284818154600181600116156101000203166002900481526020019150805460018160011615610100020316600290048015610dab5780601f10610d8057610100808354040283529160200191610dab565b820191906000526020600020905b815481529060010190602001808311610d8e57829003601f168201915b5050965050505050505060405180910390a160008060046040518082805460018160011615610100020316600290048015610e1d5780601f10610dfb576101008083540402835291820191610e1d565b820191906000526020600020905b815481529060010190602001808311610e09575b5050915050908152602001604051809103902060056040518082805460018160011615610100020316600290048015610e8d5780601f10610e6b576101008083540402835291820191610e8d565b820191906000526020600020905b815481529060010190602001808311610e79575b505091505090815260200160405180910390205490506001811415611105577f12a82394767cf2d847fef97246459cce93ce11ca18f2c8ee2d697d71825c4416600260009054906101000a900473ffffffffffffffffffffffffffffffffffffffff1660046005604051808473ffffffffffffffffffffffffffffffffffffffff1673ffffffffffffffffffffffffffffffffffffffff1681526020018060200180602001806020018481038452600d8152602001807f506c6179657220312057696e7300000000000000000000000000000000000000815250602001848103835286818154600181600116156101000203166002900481526020019150805460018160011615610100020316600290048015610feb5780601f10610fc057610100808354040283529160200191610feb565b820191906000526020600020905b815481529060010190602001808311610fce57829003601f168201915b505084810382528581815460018160011615610100020316600290048152602001915080546001816001161561010002031660029004801561106e5780601f106110435761010080835404028352916020019161106e565b820191906000526020600020905b81548152906001019060200180831161105157829003601f168201915b5050965050505050505060405180910390a1600260009054906101000a900473ffffffffffffffffffffffffffffffffffffffff1673ffffffffffffffffffffffffffffffffffffffff166108fc3073ffffffffffffffffffffffffffffffffffffffff16319081150290604051600060405180830381858888f193505050501580156110ff573d6000803e3d6000fd5b50611647565b6002811415611367577f12a82394767cf2d847fef97246459cce93ce11ca18f2c8ee2d697d71825c4416600360009054906101000a900473ffffffffffffffffffffffffffffffffffffffff1660046005604051808473ffffffffffffffffffffffffffffffffffffffff1673ffffffffffffffffffffffffffffffffffffffff1681526020018060200180602001806020018481038452600d8152602001807f506c6179657220322057696e730000000000000000000000000000000000000081525060200184810383528681815460018160011615610100020316600290048152602001915080546001816001161561010002031660029004801561124d5780601f106112225761010080835404028352916020019161124d565b820191906000526020600020905b81548152906001019060200180831161123057829003601f168201915b50508481038252858181546001816001161561010002031660029004815260200191508054600181600116156101000203166002900480156112d05780601f106112a5576101008083540402835291602001916112d0565b820191906000526020600020905b8154815290600101906020018083116112b357829003601f168201915b5050965050505050505060405180910390a1600360009054906101000a900473ffffffffffffffffffffffffffffffffffffffff1673ffffffffffffffffffffffffffffffffffffffff166108fc3073ffffffffffffffffffffffffffffffffffffffff16319081150290604051600060405180830381858888f19350505050158015611361573d6000803e3d6000fd5b50611646565b7f12a82394767cf2d847fef97246459cce93ce11ca18f2c8ee2d697d71825c4416600260009054906101000a900473ffffffffffffffffffffffffffffffffffffffff1660046005604051808473ffffffffffffffffffffffffffffffffffffffff1673ffffffffffffffffffffffffffffffffffffffff168152602001806020018060200180602001848103845260038152602001807f54696500000000000000000000000000000000000000000000000000000000008152506020018481038352868181546001816001161561010002031660029004815260200191508054600181600116156101000203166002900480156114a65780601f1061147b576101008083540402835291602001916114a6565b820191906000526020600020905b81548152906001019060200180831161148957829003601f168201915b50508481038252858181546001816001161561010002031660029004815260200191508054600181600116156101000203166002900480156115295780601f106114fe57610100808354040283529160200191611529565b820191906000526020600020905b81548152906001019060200180831161150c57829003601f168201915b5050965050505050505060405180910390a1600260009054906101000a900473ffffffffffffffffffffffffffffffffffffffff1673ffffffffffffffffffffffffffffffffffffffff166108fc60023073ffffffffffffffffffffffffffffffffffffffff16318161159857fe5b049081150290604051600060405180830381858888f193505050501580156115c4573d6000803e3d6000fd5b50600360009054906101000a900473ffffffffffffffffffffffffffffffffffffffff1673ffffffffffffffffffffffffffffffffffffffff166108fc3073ffffffffffffffffffffffffffffffffffffffff16319081150290604051600060405180830381858888f19350505050158015611644573d6000803e3d6000fd5b505b5b604051806020016040528060008152506004908051906020019061166c929190612902565b506040518060200160405280600081525060059080519060200190611692929190612902565b506000600260006101000a81548173ffffffffffffffffffffffffffffffffffffffff021916908373ffffffffffffffffffffffffffffffffffffffff1602179055506000600360006101000a81548173ffffffffffffffffffffffffffffffffffffffff021916908373ffffffffffffffffffffffffffffffffffffffff16021790555080915050611744565b7fffffffffffffffffffffffffffffffffffffffffffffffffffffffffffffffff90505b919050565b6000600260009054906101000a900473ffffffffffffffffffffffffffffffffffffffff1673ffffffffffffffffffffffffffffffffffffffff163373ffffffffffffffffffffffffffffffffffffffff1614905090565b60008083121580156117b4575060008312155b15611f9557606060016000600386816117c957fe5b0781526020019081526020016000208054600181600116156101000203166002900480601f01602080910402602001604051908101604052809291908181526020018280546001816001161561010002031660029004801561186c5780601f106118415761010080835404028352916020019161186c565b820191906000526020600020905b81548152906001019060200180831161184f57829003601f168201915b505050505090506060600160006003868161188357fe5b0781526020019081526020016000208054600181600116156101000203166002900480601f0160208091040260200160405190810160405280929190818152602001828054600181600116156101000203166002900480156119265780601f106118fb57610100808354040283529160200191611926565b820191906000526020600020905b81548152906001019060200180831161190957829003601f168201915b505050505090507f38956e8e6c029900441539c62c6e949e645bb7606efde6608603da6e3d545cb88282604051808060200180602001838103835285818151815260200191508051906020019080838360005b83811015611994578082015181840152602081019050611979565b50505050905090810190601f1680156119c15780820380516001836020036101000a031916815260200191505b50838103825284818151815260200191508051906020019080838360005b838110156119fa5780820151818401526020810190506119df565b50505050905090810190601f168015611a275780820380516001836020036101000a031916815260200191505b5094505050505060405180910390a1600080836040518082805190602001908083835b60208310611a6d5780518252602082019150602081019050602083039250611a4a565b6001836020036101000a0380198251168184511680821785525050505050509050019150509081526020016040518091039020826040518082805190602001908083835b60208310611ad45780518252602082019150602081019050602083039250611ab1565b6001836020036101000a03801982511681845116808217855250505050505090500191505090815260200160405180910390205490506001811415611c8e577f12a82394767cf2d847fef97246459cce93ce11ca18f2c8ee2d697d71825c4416338484604051808473ffffffffffffffffffffffffffffffffffffffff1673ffffffffffffffffffffffffffffffffffffffff168152602001806020018060200180602001848103845260078152602001807f596f752057696e00000000000000000000000000000000000000000000000000815250602001848103835286818151815260200191508051906020019080838360005b83811015611be5578082015181840152602081019050611bca565b50505050905090810190601f168015611c125780820380516001836020036101000a031916815260200191505b50848103825285818151815260200191508051906020019080838360005b83811015611c4b578082015181840152602081019050611c30565b50505050905090810190601f168015611c785780820380516001836020036101000a031916815260200191505b50965050505050505060405180910390a1611f8a565b6002811415611e12577f12a82394767cf2d847fef97246459cce93ce11ca18f2c8ee2d697d71825c4416308484604051808473ffffffffffffffffffffffffffffffffffffffff1673ffffffffffffffffffffffffffffffffffffffff168152602001806020018060200180602001848103845260088152602001807f596f75204c6f7365000000000000000000000000000000000000000000000000815250602001848103835286818151815260200191508051906020019080838360005b83811015611d69578082015181840152602081019050611d4e565b50505050905090810190601f168015611d965780820380516001836020036101000a031916815260200191505b50848103825285818151815260200191508051906020019080838360005b83811015611dcf578082015181840152602081019050611db4565b50505050905090810190601f168015611dfc5780820380516001836020036101000a031916815260200191505b50965050505050505060405180910390a1611f89565b7f12a82394767cf2d847fef97246459cce93ce11ca18f2c8ee2d697d71825c4416308484604051808473ffffffffffffffffffffffffffffffffffffffff1673ffffffffffffffffffffffffffffffffffffffff168152602001806020018060200180602001848103845260038152602001807f5469650000000000000000000000000000000000000000000000000000000000815250602001848103835286818151815260200191508051906020019080838360005b83811015611ee4578082015181840152602081019050611ec9565b50505050905090810190601f168015611f115780820380516001836020036101000a031916815260200191505b50848103825285818151815260200191508051906020019080838360005b83811015611f4a578082015181840152602081019050611f2f565b50505050905090810190601f168015611f775780820380516001836020036101000a031916815260200191505b50965050505050505060405180910390a15b5b809350505050611fb9565b7fffffffffffffffffffffffffffffffffffffffffffffffffffffffffffffffff90505b92915050565b6000600360009054906101000a900473ffffffffffffffffffffffffffffffffffffffff1673ffffffffffffffffffffffffffffffffffffffff163373ffffffffffffffffffffffffffffffffffffffff1614905090565b60008083511415801561202b575060008212155b15612751576060600160006003858161204057fe5b0781526020019081526020016000208054600181600116156101000203166002900480601f0160208091040260200160405190810160405280929190818152602001828054600181600116156101000203166002900480156120e35780601f106120b8576101008083540402835291602001916120e3565b820191906000526020600020905b8154815290600101906020018083116120c657829003601f168201915b505050505090507f38956e8e6c029900441539c62c6e949e645bb7606efde6608603da6e3d545cb88482604051808060200180602001838103835285818151815260200191508051906020019080838360005b83811015612151578082015181840152602081019050612136565b50505050905090810190601f16801561217e5780820380516001836020036101000a031916815260200191505b50838103825284818151815260200191508051906020019080838360005b838110156121b757808201518184015260208101905061219c565b50505050905090810190601f1680156121e45780820380516001836020036101000a031916815260200191505b5094505050505060405180910390a1600080856040518082805190602001908083835b6020831061222a5780518252602082019150602081019050602083039250612207565b6001836020036101000a0380198251168184511680821785525050505050509050019150509081526020016040518091039020826040518082805190602001908083835b60208310612291578051825260208201915060208101905060208303925061226e565b6001836020036101000a0380198251168184511680821785525050505050509050019150509081526020016040518091039020549050600181141561244b577f12a82394767cf2d847fef97246459cce93ce11ca18f2c8ee2d697d71825c4416338684604051808473ffffffffffffffffffffffffffffffffffffffff1673ffffffffffffffffffffffffffffffffffffffff168152602001806020018060200180602001848103845260078152602001807f596f752057696e00000000000000000000000000000000000000000000000000815250602001848103835286818151815260200191508051906020019080838360005b838110156123a2578082015181840152602081019050612387565b50505050905090810190601f1680156123cf5780820380516001836020036101000a031916815260200191505b50848103825285818151815260200191508051906020019080838360005b838110156124085780820151818401526020810190506123ed565b50505050905090810190601f1680156124355780820380516001836020036101000a031916815260200191505b50965050505050505060405180910390a1612747565b60028114156125cf577f12a82394767cf2d847fef97246459cce93ce11ca18f2c8ee2d697d71825c4416308684604051808473ffffffffffffffffffffffffffffffffffffffff1673ffffffffffffffffffffffffffffffffffffffff168152602001806020018060200180602001848103845260088152602001807f596f75204c6f7365000000000000000000000000000000000000000000000000815250602001848103835286818151815260200191508051906020019080838360005b8381101561252657808201518184015260208101905061250b565b50505050905090810190601f1680156125535780820380516001836020036101000a031916815260200191505b50848103825285818151815260200191508051906020019080838360005b8381101561258c578082015181840152602081019050612571565b50505050905090810190601f1680156125b95780820380516001836020036101000a031916815260200191505b50965050505050505060405180910390a1612746565b7f12a82394767cf2d847fef97246459cce93ce11ca18f2c8ee2d697d71825c4416308684604051808473ffffffffffffffffffffffffffffffffffffffff1673ffffffffffffffffffffffffffffffffffffffff168152602001806020018060200180602001848103845260038152602001807f5469650000000000000000000000000000000000000000000000000000000000815250602001848103835286818151815260200191508051906020019080838360005b838110156126a1578082015181840152602081019050612686565b50505050905090810190601f1680156126ce5780820380516001836020036101000a031916815260200191505b50848103825285818151815260200191508051906020019080838360005b838110156127075780820151818401526020810190506126ec565b50505050905090810190601f1680156127345780820380516001836020036101000a031916815260200191505b50965050505050505060405180910390a15b5b8092505050612775565b7fffffffffffffffffffffffffffffffffffffffffffffffffffffffffffffffff90505b92915050565b600080600460405180828054600181600116156101000203166002900480156127db5780601f106127b95761010080835404028352918201916127db565b820191906000526020600020905b8154815290600101906020018083116127c7575b505091505090815260200160405180910390206005604051808280546001816001161561010002031660029004801561284b5780601f1061282957610100808354040283529182019161284b565b820191906000526020600020905b815481529060010190602001808311612837575b5050915050908152602001604051809103902054905090565b60048054600181600116156101000203166002900480601f0160208091040260200160405190810160405280929190818152602001828054600181600116156101000203166002900480156128fa5780601f106128cf576101008083540402835291602001916128fa565b820191906000526020600020905b8154815290600101906020018083116128dd57829003601f168201915b505050505081565b828054600181600116156101000203166002900490600052602060002090601f016020900481019282601f1061294357805160ff1916838001178555612971565b82800160010185558215612971579182015b82811115612970578251825591602001919060010190612955565b5b50905061297e9190612982565b5090565b6129a491905b808211156129a0576000816000905550600101612988565b5090565b9056fea165627a7a7230582024525c17cf47512ba87a3e4ed4a83ebb55e8db7a19e12ca046a551260bbb8bb20029",
  "source": "pragma solidity >=0.4.20;\n\n//SKALE - Rock Paper Scissors\ncontract RockPaperScissors {\n    mapping (string => mapping(string => int)) payoffMatrix;\n    mapping (int => string) computerMatrix;\n    address payable player1 = address(0);\n    address payable player2 = address(0);\n    string public player1Choice;\n    string public player2Choice;\n\n    /// @dev Event to log player1 and player 2\n    event LogPlay(address player1, address player2, string player1Choice, string player2Choice);\n    event LogSoloPlay(string playerChoice, string computerChoice);\n    event Winner(address winningPlayer, string winner, string player1Choice, string player2Choice);\n    \n    modifier notRegisteredYet() {\n        require(\n            msg.sender != player1 && msg.sender != player2,\n            \"Not Registered.\"\n        );\n        _;\n    }\n    \n    modifier sentEnoughCash(uint amount) {\n        require(\n            msg.value >= amount,\n            \"More cash needed!\"\n        );\n        _;\n    }\n    \n    \n    constructor() public { \n        payoffMatrix[\"rock\"][\"rock\"] = 0;\n        payoffMatrix[\"rock\"][\"paper\"] = 2;\n        payoffMatrix[\"rock\"][\"scissors\"] = 1;\n        payoffMatrix[\"paper\"][\"rock\"] = 1;\n        payoffMatrix[\"paper\"][\"paper\"] = 0;\n        payoffMatrix[\"paper\"][\"scissors\"] = 2;\n        payoffMatrix[\"scissors\"][\"rock\"] = 2;\n        payoffMatrix[\"scissors\"][\"paper\"] = 1;\n        payoffMatrix[\"scissors\"][\"scissors\"] = 0;\n\n        computerMatrix[0] = \"rock\";\n        computerMatrix[1] = \"paper\";\n        computerMatrix[2] = \"scissors\";\n    }   \n\n    function getWinner() public view returns (int x) {\n        return payoffMatrix[player1Choice][player2Choice];\n    }\n    \n    function play(string memory choice) payable public returns (int w) {\n        if (msg.sender == player1)\n            player1Choice = choice;\n        else if (msg.sender == player2)\n            player2Choice = choice;\n        if (bytes(player1Choice).length != 0 && bytes(player2Choice).length != 0)\n        {\n            emit LogPlay(player1, player2, player1Choice, player2Choice);\n            \n            int winner = payoffMatrix[player1Choice][player2Choice];\n            if (winner == 1) {\n                emit Winner(player1, \"Player 1 Wins\", player1Choice, player2Choice); \n                player1.transfer(address(this).balance);\n            } else if (winner == 2) {\n                emit Winner (player2, \"Player 2 Wins\", player1Choice, player2Choice);\n                player2.transfer(address(this).balance);\n            }else\n            {\n                emit Winner(player1, \"Tie\", player1Choice, player2Choice); \n                player1.transfer(address(this).balance/2);\n                player2.transfer(address(this).balance);\n            }\n             \n            // unregister players and choices\n            player1Choice = \"\";\n            player2Choice = \"\";\n            player1 = address(0);\n            player2 = address(0);\n            return winner;\n        }\n        else \n            return -1;\n    }\n\n    function playSolo(string memory choice, int computerChoice) payable public returns (int w) {\n        if (bytes(choice).length != 0 && !(computerChoice < 0))\n        {\n            string memory computerPlay = computerMatrix[computerChoice % 3];\n            emit LogSoloPlay(choice, computerPlay);\n            \n            int winner = payoffMatrix[choice][computerPlay];\n            if (winner == 1) {\n                emit Winner(msg.sender, \"You Win\", choice, computerPlay); \n            } else if (winner == 2) {\n                emit Winner (address(this), \"You Lose\", choice, computerPlay);\n            }else\n            {\n                emit Winner (address(this), \"Tie\", choice, computerPlay);\n            }\n             \n            return winner;\n        }\n        else \n            return -1;\n    }\n\n    function computerWar(int computerChoice, int computerChoice2) payable public returns (int w) {\n        if (!(computerChoice < 0) && !(computerChoice < 0))\n        {\n            string memory computerPlay = computerMatrix[computerChoice % 3];\n            string memory computerPlay2 = computerMatrix[computerChoice2 % 3];\n            emit LogSoloPlay(computerPlay, computerPlay2);\n            \n            int winner = payoffMatrix[computerPlay][computerPlay2];\n            if (winner == 1) {\n                emit Winner(msg.sender, \"You Win\", computerPlay, computerPlay2); \n            } else if (winner == 2) {\n                emit Winner (address(this), \"You Lose\", computerPlay, computerPlay2);\n            }else\n            {\n                emit Winner (address(this), \"Tie\", computerPlay, computerPlay2);\n            }\n             \n            return winner;\n        }\n        else \n            return -1;\n    }\n       \n    \n// HELPER FUNCTIONS (not required for game)\n\n    function getMyBalance () public view returns (uint amount) {\n        return msg.sender.balance;\n    }\n    \n    function getContractBalance () public view returns (uint amount) {\n        return address(this).balance;\n    }\n    \n    function register()\n        payable\n        public \n        notRegisteredYet()\n        returns (address player)\n    {\n        if (player1 == address(0))\n            player1 = msg.sender;\n        else if (player2 == address(0))\n            player2 = msg.sender;\n            \n        emit LogPlay(player1, player2, player1Choice, player2Choice);\n        return player1;\n    }\n    \n    function AmIPlayer1() public view returns (bool x) {\n        return msg.sender == player1;\n    }\n    \n    function AmIPlayer2() public view returns (bool x) {\n        return msg.sender == player2;\n    }\n\n    \n    function checkBothNotNull() public view returns (bool x) {\n        return (bytes(player1Choice).length == 0 && bytes(player2Choice).length == 0);\n    }\n\n}",
  "sourcePath": "/Users/christine/Desktop/SKALE-workshop-demo/contracts/RockPaperScissors.sol",
  "compiler": {
    "name": "solc",
    "version": "0.5.8+commit.23d335f2.Emscripten.clang"
  },
  "schemaVersion": "3.0.15",
  "updatedAt": "2019-12-11T19:48:53.865Z",
  "devdoc": {
    "methods": {}
  },
  "userdoc": {
    "methods": {}
  }
}